{
    "contractName": "Hello",
    "abi": [
        {
            "inputs": [],
            "stateMutability": "nonpayable",
            "type": "constructor"
        },
        {
            "inputs": [],
            "name": "getGreeting",
            "outputs": [
                {
                    "internalType": "string",
                    "name": "",
                    "type": "string"
                }
            ],
            "stateMutability": "view",
            "type": "function"
        },
        {
            "inputs": [
                {
                    "internalType": "string",
                    "name": "_greeting",
                    "type": "string"
                }
            ],
            "name": "setGreeting",
            "outputs": [],
            "stateMutability": "nonpayable",
            "type": "function"
        }
    ],
    "bytecode": "608060405234801561001057600080fd5b506040805180820190915260058082526468656c6c6f60d81b602090920191825261003d91600091610043565b506100d6565b828054600181600116156101000203166002900490600052602060002090601f016020900481019282601f1061008457805160ff19168380011785556100b1565b828001600101855582156100b1579182015b828111156100b1578251825591602001919060010190610096565b506100bd9291506100c1565b5090565b5b808211156100bd57600081556001016100c2565b6102d6806100e56000396000f3fe608060405234801561001057600080fd5b50600436106100365760003560e01c8063a41368621461003b578063fe50cc72146100e3575b600080fd5b6100e16004803603602081101561005157600080fd5b81019060208101813564010000000081111561006c57600080fd5b82018360208201111561007e57600080fd5b803590602001918460018302840111640100000000831117156100a057600080fd5b91908080601f016020809104026020016040519081016040528093929190818152602001838380828437600092019190915250929550610160945050505050565b005b6100eb610177565b6040805160208082528351818301528351919283929083019185019080838360005b8381101561012557818101518382015260200161010d565b50505050905090810190601f1680156101525780820380516001836020036101000a031916815260200191505b509250505060405180910390f35b805161017390600090602084019061020d565b5050565b60008054604080516020601f60026000196101006001881615020190951694909404938401819004810282018101909252828152606093909290918301828280156102035780601f106101d857610100808354040283529160200191610203565b820191906000526020600020905b8154815290600101906020018083116101e657829003601f168201915b5050505050905090565b828054600181600116156101000203166002900490600052602060002090601f016020900481019282601f1061024e57805160ff191683800117855561027b565b8280016001018555821561027b579182015b8281111561027b578251825591602001919060010190610260565b5061028792915061028b565b5090565b5b80821115610287576000815560010161028c56fea2646970667358221220b0f50f365feae2977cb10b0ad59d205dcf24ca65bfe2787c6690b636689621f364736f6c63430007010033",
    "sourcePath": "/home/nitya/hello-blockchain/Hello.sol",
    "compiler": {
        "name": "solc",
        "version": "0.7.1+commit.f4a555be"
    },
    "functionHashes": {
        "getGreeting()": "fe50cc72",
        "setGreeting(string)": "a4136862"
    },
    "gasEstimates": {
        "creation": {
            "codeDepositCost": "145200",
            "executionCost": "infinite",
            "totalCost": "infinite"
        },
        "external": {
            "getGreeting()": "infinite",
            "setGreeting(string)": "infinite"
        }
    }
}